{
  "_format": "hh-sol-artifact-1",
  "contractName": "GrantPool",
  "sourceName": "contracts/GrantPool.sol",
  "abi": [
    {
      "inputs": [],
      "stateMutability": "nonpayable",
      "type": "constructor"
    },
    {
      "anonymous": false,
      "inputs": [
        {
          "indexed": false,
          "internalType": "uint256",
          "name": "id",
          "type": "uint256"
        },
        {
          "indexed": false,
          "internalType": "address",
          "name": "proposer",
          "type": "address"
        },
        {
          "indexed": true,
          "internalType": "string",
          "name": "nameOfProject",
          "type": "string"
        },
        {
          "indexed": true,
          "internalType": "string",
          "name": "projectDescription",
          "type": "string"
        },
        {
          "indexed": false,
          "internalType": "uint256",
          "name": "amountRequsted",
          "type": "uint256"
        }
      ],
      "name": "ApplyForGrant",
      "type": "event"
    },
    {
      "anonymous": false,
      "inputs": [
        {
          "indexed": true,
          "internalType": "address",
          "name": "contributor",
          "type": "address"
        },
        {
          "indexed": false,
          "internalType": "uint256",
          "name": "amount",
          "type": "uint256"
        }
      ],
      "name": "Contribution",
      "type": "event"
    },
    {
      "anonymous": false,
      "inputs": [
        {
          "indexed": true,
          "internalType": "uint256",
          "name": "id",
          "type": "uint256"
        },
        {
          "indexed": false,
          "internalType": "uint256",
          "name": "amountReleased",
          "type": "uint256"
        },
        {
          "indexed": false,
          "internalType": "uint256",
          "name": "totalReleased",
          "type": "uint256"
        }
      ],
      "name": "FundsReleased",
      "type": "event"
    },
    {
      "anonymous": false,
      "inputs": [
        {
          "indexed": true,
          "internalType": "uint256",
          "name": "id",
          "type": "uint256"
        },
        {
          "indexed": false,
          "internalType": "bool",
          "name": "approved",
          "type": "bool"
        }
      ],
      "name": "GrantFinalized",
      "type": "event"
    },
    {
      "anonymous": false,
      "inputs": [
        {
          "indexed": true,
          "internalType": "uint256",
          "name": "id",
          "type": "uint256"
        },
        {
          "indexed": true,
          "internalType": "address",
          "name": "voter",
          "type": "address"
        }
      ],
      "name": "Vote",
      "type": "event"
    },
    {
      "inputs": [],
      "name": "NumberOfVotesRequiredToApprove",
      "outputs": [
        {
          "internalType": "uint256",
          "name": "",
          "type": "uint256"
        }
      ],
      "stateMutability": "view",
      "type": "function"
    },
    {
      "inputs": [
        {
          "internalType": "string",
          "name": "_projectName",
          "type": "string"
        },
        {
          "internalType": "string",
          "name": "_projectDescr",
          "type": "string"
        },
        {
          "internalType": "uint256",
          "name": "_amountRequested",
          "type": "uint256"
        }
      ],
      "name": "applyForGrant",
      "outputs": [],
      "stateMutability": "nonpayable",
      "type": "function"
    },
    {
      "inputs": [],
      "name": "contribute",
      "outputs": [],
      "stateMutability": "payable",
      "type": "function"
    },
    {
      "inputs": [
        {
          "internalType": "address",
          "name": "",
          "type": "address"
        }
      ],
      "name": "contributions",
      "outputs": [
        {
          "internalType": "uint256",
          "name": "",
          "type": "uint256"
        }
      ],
      "stateMutability": "view",
      "type": "function"
    },
    {
      "inputs": [],
      "name": "getAllGrantProposal",
      "outputs": [
        {
          "components": [
            {
              "internalType": "address",
              "name": "proposer",
              "type": "address"
            },
            {
              "internalType": "string",
              "name": "nameOfProject",
              "type": "string"
            },
            {
              "internalType": "string",
              "name": "projectDescription",
              "type": "string"
            },
            {
              "internalType": "uint256",
              "name": "amountRequested",
              "type": "uint256"
            },
            {
              "internalType": "uint256",
              "name": "amountReleased",
              "type": "uint256"
            },
            {
              "internalType": "bool",
              "name": "isApproved",
              "type": "bool"
            },
            {
              "internalType": "bool",
              "name": "isFinalized",
              "type": "bool"
            },
            {
              "internalType": "uint256",
              "name": "votes",
              "type": "uint256"
            }
          ],
          "internalType": "struct GrantPool.Grant[]",
          "name": "",
          "type": "tuple[]"
        }
      ],
      "stateMutability": "view",
      "type": "function"
    },
    {
      "inputs": [
        {
          "internalType": "uint256",
          "name": "_id",
          "type": "uint256"
        }
      ],
      "name": "getGrantDetails",
      "outputs": [
        {
          "internalType": "address",
          "name": "proposer",
          "type": "address"
        },
        {
          "internalType": "string",
          "name": "nameOfProject",
          "type": "string"
        },
        {
          "internalType": "string",
          "name": "projectDescription",
          "type": "string"
        },
        {
          "internalType": "uint256",
          "name": "amountRequested",
          "type": "uint256"
        },
        {
          "internalType": "uint256",
          "name": "amountReleased",
          "type": "uint256"
        },
        {
          "internalType": "bool",
          "name": "isApproved",
          "type": "bool"
        },
        {
          "internalType": "bool",
          "name": "isFinalized",
          "type": "bool"
        },
        {
          "internalType": "uint256",
          "name": "votes",
          "type": "uint256"
        }
      ],
      "stateMutability": "view",
      "type": "function"
    },
    {
      "inputs": [
        {
          "internalType": "uint256",
          "name": "",
          "type": "uint256"
        }
      ],
      "name": "grantsProposal",
      "outputs": [
        {
          "internalType": "address",
          "name": "proposer",
          "type": "address"
        },
        {
          "internalType": "string",
          "name": "nameOfProject",
          "type": "string"
        },
        {
          "internalType": "string",
          "name": "projectDescription",
          "type": "string"
        },
        {
          "internalType": "uint256",
          "name": "amountRequested",
          "type": "uint256"
        },
        {
          "internalType": "uint256",
          "name": "amountReleased",
          "type": "uint256"
        },
        {
          "internalType": "bool",
          "name": "isApproved",
          "type": "bool"
        },
        {
          "internalType": "bool",
          "name": "isFinalized",
          "type": "bool"
        },
        {
          "internalType": "uint256",
          "name": "votes",
          "type": "uint256"
        }
      ],
      "stateMutability": "view",
      "type": "function"
    },
    {
      "inputs": [
        {
          "internalType": "uint256",
          "name": "",
          "type": "uint256"
        },
        {
          "internalType": "address",
          "name": "",
          "type": "address"
        }
      ],
      "name": "hasVoted",
      "outputs": [
        {
          "internalType": "bool",
          "name": "",
          "type": "bool"
        }
      ],
      "stateMutability": "view",
      "type": "function"
    },
    {
      "inputs": [],
      "name": "owner",
      "outputs": [
        {
          "internalType": "address",
          "name": "",
          "type": "address"
        }
      ],
      "stateMutability": "view",
      "type": "function"
    },
    {
      "inputs": [
        {
          "internalType": "uint256",
          "name": "_id",
          "type": "uint256"
        },
        {
          "internalType": "uint256",
          "name": "_amount",
          "type": "uint256"
        }
      ],
      "name": "releaseFunds",
      "outputs": [],
      "stateMutability": "payable",
      "type": "function"
    },
    {
      "inputs": [],
      "name": "totalFundsInPool",
      "outputs": [
        {
          "internalType": "uint256",
          "name": "",
          "type": "uint256"
        }
      ],
      "stateMutability": "view",
      "type": "function"
    },
    {
      "inputs": [
        {
          "internalType": "uint256",
          "name": "_id",
          "type": "uint256"
        }
      ],
      "name": "voteOnGrant",
      "outputs": [],
      "stateMutability": "nonpayable",
      "type": "function"
    }
  ],
  "bytecode": "0x60806040526005600455348015601457600080fd5b5033600560006101000a81548173ffffffffffffffffffffffffffffffffffffffff021916908373ffffffffffffffffffffffffffffffffffffffff16021790555061247c806100656000396000f3fe6080604052600436106100a75760003560e01c8063baa7804111610064578063baa78041146101e9578063bc8cdfe014610214578063d7bb99ba1461023d578063df7843ae14610247578063f1b591d614610263578063fdd2e32e146102a7576100a7565b80630c77c80e146100ac5780632e76c71f146100f057806342e94c901461011957806343859632146101565780638a240f92146101935780638da5cb5b146101be575b600080fd5b3480156100b857600080fd5b506100d360048036038101906100ce9190611453565b6102d2565b6040516100e798979695949392919061157b565b60405180910390f35b3480156100fc57600080fd5b506101176004803603810190610112919061173c565b610474565b005b34801561012557600080fd5b50610140600480360381019061013b91906117f3565b6106f4565b60405161014d9190611820565b60405180910390f35b34801561016257600080fd5b5061017d6004803603810190610178919061183b565b61070c565b60405161018a919061187b565b60405180910390f35b34801561019f57600080fd5b506101a861073b565b6040516101b59190611820565b60405180910390f35b3480156101ca57600080fd5b506101d3610741565b6040516101e09190611896565b60405180910390f35b3480156101f557600080fd5b506101fe610767565b60405161020b9190611aa1565b60405180910390f35b34801561022057600080fd5b5061023b60048036038101906102369190611453565b610995565b005b610245610c8a565b005b610261600480360381019061025c9190611ac3565b610d8c565b005b34801561026f57600080fd5b5061028a60048036038101906102859190611453565b61110e565b60405161029e98979695949392919061157b565b60405180910390f35b3480156102b357600080fd5b506102bc6113a4565b6040516102c99190611820565b60405180910390f35b600081815481106102e257600080fd5b90600052602060002090600702016000915090508060000160009054906101000a900473ffffffffffffffffffffffffffffffffffffffff169080600101805461032b90611b32565b80601f016020809104026020016040519081016040528092919081815260200182805461035790611b32565b80156103a45780601f10610379576101008083540402835291602001916103a4565b820191906000526020600020905b81548152906001019060200180831161038757829003601f168201915b5050505050908060020180546103b990611b32565b80601f01602080910402602001604051908101604052809291908181526020018280546103e590611b32565b80156104325780601f1061040757610100808354040283529160200191610432565b820191906000526020600020905b81548152906001019060200180831161041557829003601f168201915b5050505050908060030154908060040154908060050160009054906101000a900460ff16908060050160019054906101000a900460ff16908060060154905088565b600073ffffffffffffffffffffffffffffffffffffffff163373ffffffffffffffffffffffffffffffffffffffff16036104e3576040517f08c379a00000000000000000000000000000000000000000000000000000000081526004016104da90611baf565b60405180910390fd5b6104eb6113aa565b83816020018190525082816040018190525081816060018181525050600081608001818152505060008160a001901515908115158152505060008160c001901515908115158152505060008160e001818152505033816000019073ffffffffffffffffffffffffffffffffffffffff16908173ffffffffffffffffffffffffffffffffffffffff1681525050600081908060018154018082558091505060019003906000526020600020906007020160009091909190915060008201518160000160006101000a81548173ffffffffffffffffffffffffffffffffffffffff021916908373ffffffffffffffffffffffffffffffffffffffff16021790555060208201518160010190816105ff9190611d7b565b5060408201518160020190816106159190611d7b565b50606082015181600301556080820151816004015560a08201518160050160006101000a81548160ff02191690831515021790555060c08201518160050160016101000a81548160ff02191690831515021790555060e082015181600601555050826040516106849190611e89565b60405180910390208460405161069a9190611e89565b60405180910390207f1f7111177923e6683ba8995538bcfe55f113619f3f44ce650297526fd196755760016000805490506106d59190611ecf565b33866040516106e693929190611f03565b60405180910390a350505050565b60016020528060005260406000206000915090505481565b60026020528160005260406000206020528060005260406000206000915091509054906101000a900460ff1681565b60035481565b600560009054906101000a900473ffffffffffffffffffffffffffffffffffffffff1681565b60606000805480602002602001604051908101604052809291908181526020016000905b8282101561098c5783829060005260206000209060070201604051806101000160405290816000820160009054906101000a900473ffffffffffffffffffffffffffffffffffffffff1673ffffffffffffffffffffffffffffffffffffffff1673ffffffffffffffffffffffffffffffffffffffff16815260200160018201805461081590611b32565b80601f016020809104026020016040519081016040528092919081815260200182805461084190611b32565b801561088e5780601f106108635761010080835404028352916020019161088e565b820191906000526020600020905b81548152906001019060200180831161087157829003601f168201915b505050505081526020016002820180546108a790611b32565b80601f01602080910402602001604051908101604052809291908181526020018280546108d390611b32565b80156109205780601f106108f557610100808354040283529160200191610920565b820191906000526020600020905b81548152906001019060200180831161090357829003601f168201915b5050505050815260200160038201548152602001600482015481526020016005820160009054906101000a900460ff161515151581526020016005820160019054906101000a900460ff161515151581526020016006820154815250508152602001906001019061078b565b50505050905090565b6000600160003373ffffffffffffffffffffffffffffffffffffffff1673ffffffffffffffffffffffffffffffffffffffff1681526020019081526020016000205411610a17576040517f08c379a0000000000000000000000000000000000000000000000000000000008152600401610a0e90611f86565b60405180910390fd5b6000805490508110610a5e576040517f08c379a0000000000000000000000000000000000000000000000000000000008152600401610a5590611ff2565b60405180910390fd5b60008181548110610a7257610a71612012565b5b906000526020600020906007020160050160019054906101000a900460ff1615610ad1576040517f08c379a0000000000000000000000000000000000000000000000000000000008152600401610ac89061208d565b60405180910390fd5b6002600082815260200190815260200160002060003373ffffffffffffffffffffffffffffffffffffffff1673ffffffffffffffffffffffffffffffffffffffff16815260200190815260200160002060009054906101000a900460ff1615610b6f576040517f08c379a0000000000000000000000000000000000000000000000000000000008152600401610b66906120f9565b60405180910390fd5b6000808281548110610b8457610b83612012565b5b9060005260206000209060070201905060016002600084815260200190815260200160002060003373ffffffffffffffffffffffffffffffffffffffff1673ffffffffffffffffffffffffffffffffffffffff16815260200190815260200160002060006101000a81548160ff021916908315150217905550806006016000815480929190610c1290612119565b91905055503373ffffffffffffffffffffffffffffffffffffffff16827f10a412bf229fbac2408912cb271b8ff9eb39eb72da91dd0c8accab0fb101113560405160405180910390a3600454816006015410610c865760018160050160006101000a81548160ff0219169083151502179055505b5050565b60003411610ccd576040517f08c379a0000000000000000000000000000000000000000000000000000000008152600401610cc4906121ad565b60405180910390fd5b34600160003373ffffffffffffffffffffffffffffffffffffffff1673ffffffffffffffffffffffffffffffffffffffff1681526020019081526020016000206000828254610d1c91906121cd565b925050819055503460036000828254610d3591906121cd565b925050819055503373ffffffffffffffffffffffffffffffffffffffff167f4d154d4aae216bed6d0926db77c00df2b57c6b5ba4eee05775de20facede3a7b34604051610d829190611820565b60405180910390a2565b600560009054906101000a900473ffffffffffffffffffffffffffffffffffffffff1673ffffffffffffffffffffffffffffffffffffffff163373ffffffffffffffffffffffffffffffffffffffff1614610e1c576040517f08c379a0000000000000000000000000000000000000000000000000000000008152600401610e139061224d565b60405180910390fd5b6000805490508210610e63576040517f08c379a0000000000000000000000000000000000000000000000000000000008152600401610e5a90611ff2565b60405180910390fd5b6000808381548110610e7857610e77612012565b5b906000526020600020906007020190508060050160009054906101000a900460ff16610ed9576040517f08c379a0000000000000000000000000000000000000000000000000000000008152600401610ed0906122b9565b60405180910390fd5b8060050160019054906101000a900460ff1615610f2b576040517f08c379a0000000000000000000000000000000000000000000000000000000008152600401610f2290612325565b60405180910390fd5b8060030154828260040154610f4091906121cd565b1115610f81576040517f08c379a0000000000000000000000000000000000000000000000000000000008152600401610f7890612391565b60405180910390fd5b816003541015610fc6576040517f08c379a0000000000000000000000000000000000000000000000000000000008152600401610fbd906123fd565b60405180910390fd5b81816004016000828254610fda91906121cd565b925050819055508160036000828254610ff39190611ecf565b925050819055508060000160009054906101000a900473ffffffffffffffffffffffffffffffffffffffff1673ffffffffffffffffffffffffffffffffffffffff166108fc839081150290604051600060405180830381858888f19350505050158015611064573d6000803e3d6000fd5b50827f24d2f6e8ac6c13d1e7610752ab0b7ce03d5043806a65d3d631ae859ad81d159b83836004015460405161109b92919061241d565b60405180910390a280600301548160040154036111095760018160050160016101000a81548160ff021916908315150217905550827f3b04ebc6ee328f944a8ca1136b71b60e7fa9bb9b9763c6eed79326f4090ceaef6001604051611100919061187b565b60405180910390a25b505050565b6000606080600080600080600080805490508910611161576040517f08c379a000000000000000000000000000000000000000000000000000000000815260040161115890611ff2565b60405180910390fd5b6000808a8154811061117657611175612012565b5b9060005260206000209060070201604051806101000160405290816000820160009054906101000a900473ffffffffffffffffffffffffffffffffffffffff1673ffffffffffffffffffffffffffffffffffffffff1673ffffffffffffffffffffffffffffffffffffffff1681526020016001820180546111f690611b32565b80601f016020809104026020016040519081016040528092919081815260200182805461122290611b32565b801561126f5780601f106112445761010080835404028352916020019161126f565b820191906000526020600020905b81548152906001019060200180831161125257829003601f168201915b5050505050815260200160028201805461128890611b32565b80601f01602080910402602001604051908101604052809291908181526020018280546112b490611b32565b80156113015780601f106112d657610100808354040283529160200191611301565b820191906000526020600020905b8154815290600101906020018083116112e457829003601f168201915b5050505050815260200160038201548152602001600482015481526020016005820160009054906101000a900460ff161515151581526020016005820160019054906101000a900460ff161515151581526020016006820154815250509050806000015181602001518260400151836060015184608001518560a001518660c001518760e001519850985098509850985098509850985050919395975091939597565b60045481565b604051806101000160405280600073ffffffffffffffffffffffffffffffffffffffff16815260200160608152602001606081526020016000815260200160008152602001600015158152602001600015158152602001600081525090565b6000604051905090565b600080fd5b600080fd5b6000819050919050565b6114308161141d565b811461143b57600080fd5b50565b60008135905061144d81611427565b92915050565b60006020828403121561146957611468611413565b5b60006114778482850161143e565b91505092915050565b600073ffffffffffffffffffffffffffffffffffffffff82169050919050565b60006114ab82611480565b9050919050565b6114bb816114a0565b82525050565b600081519050919050565b600082825260208201905092915050565b60005b838110156114fb5780820151818401526020810190506114e0565b60008484015250505050565b6000601f19601f8301169050919050565b6000611523826114c1565b61152d81856114cc565b935061153d8185602086016114dd565b61154681611507565b840191505092915050565b61155a8161141d565b82525050565b60008115159050919050565b61157581611560565b82525050565b600061010082019050611591600083018b6114b2565b81810360208301526115a3818a611518565b905081810360408301526115b78189611518565b90506115c66060830188611551565b6115d36080830187611551565b6115e060a083018661156c565b6115ed60c083018561156c565b6115fa60e0830184611551565b9998505050505050505050565b600080fd5b600080fd5b7f4e487b7100000000000000000000000000000000000000000000000000000000600052604160045260246000fd5b61164982611507565b810181811067ffffffffffffffff8211171561166857611667611611565b5b80604052505050565b600061167b611409565b90506116878282611640565b919050565b600067ffffffffffffffff8211156116a7576116a6611611565b5b6116b082611507565b9050602081019050919050565b82818337600083830152505050565b60006116df6116da8461168c565b611671565b9050828152602081018484840111156116fb576116fa61160c565b5b6117068482856116bd565b509392505050565b600082601f83011261172357611722611607565b5b81356117338482602086016116cc565b91505092915050565b60008060006060848603121561175557611754611413565b5b600084013567ffffffffffffffff81111561177357611772611418565b5b61177f8682870161170e565b935050602084013567ffffffffffffffff8111156117a05761179f611418565b5b6117ac8682870161170e565b92505060406117bd8682870161143e565b9150509250925092565b6117d0816114a0565b81146117db57600080fd5b50565b6000813590506117ed816117c7565b92915050565b60006020828403121561180957611808611413565b5b6000611817848285016117de565b91505092915050565b60006020820190506118356000830184611551565b92915050565b6000806040838503121561185257611851611413565b5b60006118608582860161143e565b9250506020611871858286016117de565b9150509250929050565b6000602082019050611890600083018461156c565b92915050565b60006020820190506118ab60008301846114b2565b92915050565b600081519050919050565b600082825260208201905092915050565b6000819050602082019050919050565b6118e6816114a0565b82525050565b600082825260208201905092915050565b6000611908826114c1565b61191281856118ec565b93506119228185602086016114dd565b61192b81611507565b840191505092915050565b61193f8161141d565b82525050565b61194e81611560565b82525050565b60006101008301600083015161196d60008601826118dd565b506020830151848203602086015261198582826118fd565b9150506040830151848203604086015261199f82826118fd565b91505060608301516119b46060860182611936565b5060808301516119c76080860182611936565b5060a08301516119da60a0860182611945565b5060c08301516119ed60c0860182611945565b5060e0830151611a0060e0860182611936565b508091505092915050565b6000611a178383611954565b905092915050565b6000602082019050919050565b6000611a37826118b1565b611a4181856118bc565b935083602082028501611a53856118cd565b8060005b85811015611a8f5784840389528151611a708582611a0b565b9450611a7b83611a1f565b925060208a01995050600181019050611a57565b50829750879550505050505092915050565b60006020820190508181036000830152611abb8184611a2c565b905092915050565b60008060408385031215611ada57611ad9611413565b5b6000611ae88582860161143e565b9250506020611af98582860161143e565b9150509250929050565b7f4e487b7100000000000000000000000000000000000000000000000000000000600052602260045260246000fd5b60006002820490506001821680611b4a57607f821691505b602082108103611b5d57611b5c611b03565b5b50919050565b7f5a65726f2061646472657373206973206e6f7420616c6c6f7765640000000000600082015250565b6000611b99601b836114cc565b9150611ba482611b63565b602082019050919050565b60006020820190508181036000830152611bc881611b8c565b9050919050565b60008190508160005260206000209050919050565b60006020601f8301049050919050565b600082821b905092915050565b600060088302611c317fffffffffffffffffffffffffffffffffffffffffffffffffffffffffffffffff82611bf4565b611c3b8683611bf4565b95508019841693508086168417925050509392505050565b6000819050919050565b6000611c78611c73611c6e8461141d565b611c53565b61141d565b9050919050565b6000819050919050565b611c9283611c5d565b611ca6611c9e82611c7f565b848454611c01565b825550505050565b600090565b611cbb611cae565b611cc6818484611c89565b505050565b5b81811015611cea57611cdf600082611cb3565b600181019050611ccc565b5050565b601f821115611d2f57611d0081611bcf565b611d0984611be4565b81016020851015611d18578190505b611d2c611d2485611be4565b830182611ccb565b50505b505050565b600082821c905092915050565b6000611d5260001984600802611d34565b1980831691505092915050565b6000611d6b8383611d41565b9150826002028217905092915050565b611d84826114c1565b67ffffffffffffffff811115611d9d57611d9c611611565b5b611da78254611b32565b611db2828285611cee565b600060209050601f831160018114611de55760008415611dd3578287015190505b611ddd8582611d5f565b865550611e45565b601f198416611df386611bcf565b60005b82811015611e1b57848901518255600182019150602085019450602081019050611df6565b86831015611e385784890151611e34601f891682611d41565b8355505b6001600288020188555050505b505050505050565b600081905092915050565b6000611e63826114c1565b611e6d8185611e4d565b9350611e7d8185602086016114dd565b80840191505092915050565b6000611e958284611e58565b915081905092915050565b7f4e487b7100000000000000000000000000000000000000000000000000000000600052601160045260246000fd5b6000611eda8261141d565b9150611ee58361141d565b9250828203905081811115611efd57611efc611ea0565b5b92915050565b6000606082019050611f186000830186611551565b611f2560208301856114b2565b611f326040830184611551565b949350505050565b7f4e6f74206120636f6e7472696275746f72000000000000000000000000000000600082015250565b6000611f706011836114cc565b9150611f7b82611f3a565b602082019050919050565b60006020820190508181036000830152611f9f81611f63565b9050919050565b7f496e76616c6964206772616e7420494400000000000000000000000000000000600082015250565b6000611fdc6010836114cc565b9150611fe782611fa6565b602082019050919050565b6000602082019050818103600083015261200b81611fcf565b9050919050565b7f4e487b7100000000000000000000000000000000000000000000000000000000600052603260045260246000fd5b7f4772616e7420697320616c72656164792066696e616c697a6564000000000000600082015250565b6000612077601a836114cc565b915061208282612041565b602082019050919050565b600060208201905081810360008301526120a68161206a565b9050919050565b7f416c726561647920766f74656400000000000000000000000000000000000000600082015250565b60006120e3600d836114cc565b91506120ee826120ad565b602082019050919050565b60006020820190508181036000830152612112816120d6565b9050919050565b60006121248261141d565b91507fffffffffffffffffffffffffffffffffffffffffffffffffffffffffffffffff820361215657612155611ea0565b5b600182019050919050565b7f416d6f756e74206d7573742062652067726561746572207468616e2030000000600082015250565b6000612197601d836114cc565b91506121a282612161565b602082019050919050565b600060208201905081810360008301526121c68161218a565b9050919050565b60006121d88261141d565b91506121e38361141d565b92508282019050808211156121fb576121fa611ea0565b5b92915050565b7f4f6e6c79206f776e65722063616e206163636573730000000000000000000000600082015250565b60006122376015836114cc565b915061224282612201565b602082019050919050565b600060208201905081810360008301526122668161222a565b9050919050565b7f4772616e74206e6f7420617070726f7665640000000000000000000000000000600082015250565b60006122a36012836114cc565b91506122ae8261226d565b602082019050919050565b600060208201905081810360008301526122d281612296565b9050919050565b7f4772616e742069732066696e616c697a65640000000000000000000000000000600082015250565b600061230f6012836114cc565b915061231a826122d9565b602082019050919050565b6000602082019050818103600083015261233e81612302565b9050919050565b7f457863656564732072657175657374656420616d6f756e740000000000000000600082015250565b600061237b6018836114cc565b915061238682612345565b602082019050919050565b600060208201905081810360008301526123aa8161236e565b9050919050565b7f496e73756666696369656e7420706f6f6c2066756e6473000000000000000000600082015250565b60006123e76017836114cc565b91506123f2826123b1565b602082019050919050565b60006020820190508181036000830152612416816123da565b9050919050565b60006040820190506124326000830185611551565b61243f6020830184611551565b939250505056fea264697066735822122029bb737fddaf0a7fd3f2954c979124346c1d6510880e78e38cfdb639a42e5e3164736f6c634300081b0033",
  "linkReferences": {},
  "deployedLinkReferences": {}
}